:020000040000FA
:100000000C947A000C94A2000C94A2000C94A20010
:100010000C94A2000C94A2000C94A2000C94A200D8
:100020000C94A2000C94A2000C94A2000C94A200C8
:100030000C94A2000C94A2000C94A2000C94A200B8
:100040000C94C40C0C94A2000C94920C0C946C0CA8
:100050000C94A2000C94A2000C94A2000C94A20098
:100060000C94A2000C94A200CDCCCC3D0AD7233C2A
:1000700017B7D13877CC2B329595E6241FB14F0AAC
:10008000000020410000C84200401C4620BCBE4C7D
:10009000CA1B0E5AAEC59D74000000002400270044
:1000A0002A0000000000250028002B0000000008A6
:1000B000000201000003040700000000000000002F
:1000C00000000000230026002900040404040404A6
:1000D00004040202020202020303030303030102F7
:1000E00004081020408001020408102001020408C6
:1000F0001020530D11241FBECFEFD8E0DEBFCDBFBF
:1001000011E0A0E0B1E0E4E0F2E202C005900D925F
:10011000AE38B107D9F722E0AEE8B1E001C01D92D8
:10012000AF35B207E1F710E0CAE7D0E004C021978D
:10013000FE010E94FA10C937D107C9F70E94BD0D10
:100140000C9400110C940000CF92DF92EF92FF927A
:10015000CF93DF93B0915302A0E08111AB2F809138
:10016000540290E0880F991FAC0140545F4FC0903B
:100170005902D0905A02E0905B02F0905C0230E0AD
:1001800020E0FA01C591D491E881B90190E080E0C6
:10019000EB23EA130AC02F5F3F4F6C157D058E05D8
:1001A0009F0578F36FEF7FEFCB01DF91CF91FF9049
:1001B000EF90DF90CF900895AF92BF92CF92DF92F1
:1001C000EF92FF920F931F93CF93DF936C017B010C
:1001D0008B01040F151FEB015E01AE18BF08C0179D
:1001E000D10759F06991D601ED91FC910190F08110
:1001F000E02DC6010995892B79F7C501DF91CF91D3
:100200001F910F91FF90EF90DF90CF90BF90AF9034
:100210000895FC01538D448D252F30E0842F90E00C
:10022000821B930B541710F0CF96089501970895F1
:10023000FC01918D828D981761F0A28DAE0FBF2FBA
:10024000B11D5D968C91928D9F5F9F73928F90E010
:1002500008958FEF9FEF0895FC01918D828D98177F
:1002600031F0828DE80FF11D858D90E008958FEFBC
:100270009FEF0895FC01918D228D892F90E0805C85
:100280009F4F821B91098F739927089587E991E009
:100290000E943A0121E0892B09F420E0822F089581
:1002A00080E090E0892B29F00E94460181110C9496
:1002B00000000895FC01A48DA80FB92FB11DA35A09
:1002C000BF4F2C91848D90E001968F739927848F76
:1002D000A689B7892C93A089B1898C918370806499
:1002E0008C93938D848D981306C00288F389E02D3A
:1002F00080818F7D80830895EF92FF920F931F93EB
:10030000CF93DF93EC0181E0888F9B8D8C8D9813C8
:100310001AC0E889F989808185FF15C09FB7F894D4
:10032000EE89FF896083E889F98980818370806420
:1003300080839FBF81E090E0DF91CF911F910F916B
:10034000FF90EF900895F62E0B8D10E00F5F1F4F7A
:100350000F731127E02E8C8D8E110CC00FB607FC89
:10036000FACFE889F989808185FFF5CFCE010E9417
:100370005A01F1CFEB8DEC0FFD2FF11DE35AFF4F2A
:10038000F0829FB7F8940B8FEA89FB8980818062A5
:10039000CFCFCF93DF93EC01888D8823B9F0AA8962
:1003A000BB89E889F9898C9185FD03C0808186FD30
:1003B0000DC00FB607FCF7CF8C9185FFF2CF80817F
:1003C00085FFEDCFCE010E945A01E9CFDF91CF9199
:1003D000089590E0FC01E455FF4F2491FC01E252A6
:1003E000FF4F3491FC01E653FF4FE491EE23C9F037
:1003F000222339F0233001F1A8F4213019F1223001
:1004000029F1F0E0EE0FFF1FEE55FF4FA591B491DB
:100410008FB7F894EC91611126C030953E233C9340
:100420008FBF08952730A9F02830C9F0243049F74C
:10043000809180008F7D03C0809180008F778093B2
:100440008000DFCF84B58F7784BDDBCF84B58F7D0F
:10045000FBCF8091B0008F778093B000D2CF809196
:10046000B0008F7DF9CF3E2BDACFCF93DF9390E0B2
:10047000FC01E252FF4F249186539F4FFC0184916F
:100480008823C9F090E0880F991FFC01E856FF4FC0
:10049000A591B491FC01EE55FF4FC591D491611126
:1004A0000DC09FB7F8948C91209582238C938881FE
:1004B000282328839FBFDF91CF910895623051F4A4
:1004C0009FB7F8943C91822F809583238C93E88189
:1004D0002E2BEFCF8FB7F894EC912E2B2C938FBF50
:1004E000EACF3FB7F89480918F0190919001A0914D
:1004F0009101B091920126B5A89B05C02F3F19F03C
:100500000196A11DB11D3FBFBA2FA92F982F882793
:10051000BC01CD01620F711D811D911D42E0660F6E
:10052000771F881F991F4A95D1F708958F929F9240
:10053000AF92BF92CF92DF92EF92FF924B015C019C
:100540000E9471026B017C010E9471026C197D098D
:100550008E099F09683E734081059105A8F321E04B
:10056000821A9108A108B10888EEC80E83E0D81E4F
:10057000E11CF11C81149104A104B10429F7FF903E
:10058000EF90DF90CF90BF90AF909F908F900895A5
:10059000CF92DF92EF92FF920F931F93CF93DF934F
:1005A000CDB7DEB7C054D1400FB6F894DEBF0FBE52
:1005B000CDBF2FB7F8948091930190919401A091B1
:1005C0009501B09196012FBF40915502509156026E
:1005D00060915702709158028C019D01041B150B0C
:1005E000260B370BB901A801403D57406105710545
:1005F00090F480915D02C05CDE4F0FB6F894DEBFD0
:100600000FBECDBFDF91CF911F910F91FF90EF9063
:10061000DF90CF9008958093550290935602A09357
:100620005702B09358021092500210924F0210924B
:100630004E0210924D0210924C0262E080915102E3
:100640000E94350261E070E080E090E00E94960236
:1006500061E0809151020E94350260E08091510278
:100660000E94E901809152028551823020F58BE28F
:1006700091E10197F1F762E0809151020E94350209
:1006800080915E0290E08230910538F0880F991FCA
:10069000880F991F05970197F1F7F89480E00E9461
:1006A000A4006F3F7F4F8F4F9F4F61F410925D0208
:1006B000789480E0A0CF64E170E080E090E00E9458
:1006C0009602D9CF81E00E94A4006F3F7F4F8F4FE9
:1006D0009F4F61F38E010F5F1F4F6E018FEBC81AA2
:1006E0008EEFD80A780180E00E94A400F7016083B1
:1006F00071838283938381E00E94A400F701648365
:10070000758386839783F8E0EF0EF11CEC14FD04EB
:1007100051F7789430E020E0F801C080D180E28089
:10072000F3804481558166817781FFEFCF16DF0624
:10073000EF06FF0631F04F3F8FEF58076807780745
:1007400019F410925D02B5CFF90183E0F595E795B4
:100750008A95E1F7E45BFD4F8081880FC416D506CA
:10076000E606F70610F180832F5F3F4F085F1F4FAB
:100770002832310589F64091500220914C02809137
:100780004D02280F3327331F80914E02280F311D51
:1007900080914F02820F932F911D992748171906B8
:1007A00081F681E080935D0226CF8160DCCF0895E1
:1007B00090E080E00895FC01A281B3818081918165
:1007C00030E020E0A817B90738F4CD0101969383F3
:1007D00082836C9321E030E084819581820F931FA6
:1007E000958384830895CF93DF93FC018281938165
:1007F000EB01460F571FA281B38120813181A217DF
:10080000B30758F4C417D50741F02991BD016F5FB4
:100810007F4F738362832C93EECFA81BB90B848127
:100820009581A80FB91FB583A483DF91CF91089557
:100830008F929F92AF92BF92CF92DF92EF92FF92F0
:100840000F931F93CF93DF93CDB7DEB766970FB6A5
:10085000F894DEBF0FBECDBF6C018E01095E1F4F45
:1008600078018AE0882E912CA12CB12CCB01BA0101
:10087000A50194010E94D810942F852F605DF80186
:1008800062938F01A901692F782F411551056105E8
:10089000710561F7A7014E1B5F0BBF01C6010E94E6
:1008A000F30366960FB6F894DEBF0FBECDBFDF919F
:1008B000CF911F910F91FF90EF90DF90CF90BF905D
:1008C000AF909F908F900895FC012581222339F0ED
:1008D000F8E02F0290011124820F931F089590E0F9
:1008E00080E00895CF93DF93EC0160E08E810E9459
:1008F000E90161E08E810E94E90160E08E810E9441
:10090000E9018BE891E00197F1F7DF91CF9108952C
:10091000CF92DF92EF92FF920F931F93CF93DF93CB
:100920006C017C0187E0E80EF11CD0E0C0E0062FEE
:1009300010E0B8010C2E02C0759567950A94E2F795
:100940006170F70181917F010E94E9012196C43015
:10095000D10579F7C601DF91CF911F910F91FF90DB
:10096000EF90DF90CF900C947204CF92DF92EF92D1
:10097000FF920F931F93CF93DF93EC01F62E642F1A
:100980008C810E94E9018D818F3F19F060E00E9407
:10099000E9010F2D10E08F8584FF25C06E0187E0EF
:1009A000C80ED11CF12CE12CB8010E2C02C075959B
:1009B00067950A94E2F76170F60181916F010E94D8
:1009C000E901FFEFEF1AFF0A88E0E816F10461F78A
:1009D000CE01DF91CF911F910F91FF90EF90DF90AB
:1009E000CF900C947204B80184E0759567958A9550
:1009F000E1F7CE010E9488046F2DCE01DF91CF91E7
:100A00001F910F91FF90EF90DF90CF900C9488048E
:100A100040E0682F84E392E00C94B504CF93DF9319
:100A2000823029F49091430298609093430280931E
:100A300047021092480280E48093490280E180934B
:100A40004A0280E580934B0261E0809138020E9467
:100A50003502809139028F3F19F061E00E94350222
:100A600061E080913A020E943502C4E3D2E09E0127
:100A7000245332408091430284FD0BC084E090E017
:100A800021962817390744F461E08E810E943502CF
:100A9000EECF88E090E0F4CF8BE39DE00197F1F793
:100AA00060E0809138020E94E90160E080913A02A2
:100AB0000E94E901809139028F3F19F060E00E94A5
:100AC000E9018091430284FD39C063E084E392E050
:100AD0000E948804CBE4D6E4CE010197F1F763E0ED
:100AE00084E392E00E9488042197F1F763E084E3B5
:100AF00092E00E94880483E592E00197F1F762E0BA
:100B000084E392E00E9488048091430280620E9404
:100B1000080584E0809344028CE00E94080581E08F
:100B20000E9408058BE39FE10197F1F782E0809333
:100B3000450286E0DF91CF910C94080580620E9407
:100B400008058BE496E40197F1F7809143028062F7
:100B50000E94080583E592E00197F1F78091430236
:100B600080620E940805D0CF90914702691710F06B
:100B70006FEF690FE62FF0E0EC5CFD4F9489890F71
:100B800080680C94080541E00E94B50481E090E083
:100B90000895FB0101900020E9F73197AF01461B52
:100BA000570BDC01ED91FC910280F381E02D09945B
:100BB0008F929F92AF92BF920F931F93CF93DF9329
:100BC000CDB7DEB7A1970FB6F894DEBF0FBECDBF8D
:100BD00019A2423008F44AE08E010F5D1F4F842EA7
:100BE000912CB12CA12CA50194010E94D810E62FC4
:100BF000B901CA01EA3004F5E05DD801EE938D0138
:100C0000232B242B252B79F790E080E0109729F0F7
:100C1000BD0184E392E00E94C905A1960FB6F89445
:100C2000DEBF0FBECDBFDF91CF911F910F91BF905F
:100C3000AF909F908F900895E95CDFCF4F925F92C5
:100C40006F927F928F929F92AF92BF92CF92DF92DC
:100C5000EF92FF920F931F93CF936B017C01742E41
:100C6000AC019B010E94BF106EE171E0811126C0B2
:100C700046015701E894B7F82FEF3FEF4FE75FE7E2
:100C8000C501B4010E94BF1081110CC02FEF3FEFCE
:100C90004FE75FE7C501B4010E94F50E62E271E023
:100CA000181664F02FEF3FEF4FE75FE4C701B6017E
:100CB0000E944D101816ACF466E271E084E392E0F5
:100CC000CF911F910F91FF90EF90DF90CF90BF9049
:100CD000AF909F908F907F906F905F904F900C940B
:100CE000C9052FEF3FEF4FE75FECC701B6010E9448
:100CF000F50E87FDE1CF20E030E0A901C701B60184
:100D00000E94F50E10E000E087FF0CC041E06DE2AC
:100D100084E392E00E94B504F7FAF094F7F8F094B7
:100D200001E010E0C0E060E070E080E09FE37C164E
:100D300041F020E030E040E251E40E94FA0ECF5F43
:100D4000F6CFA70196010E94890E4B015C010E941B
:100D50006C0F2B013C014AE00E94D805080F191FB7
:100D6000CC23C9F1C301B2010E949B0F9B01AC01CE
:100D7000C501B4010E94880E4B015C0141E06EE2A6
:100D800084E392E00E94B5040F5F1F4FC15018F139
:100D900020E030E040E251E4C501B4010E9452106D
:100DA0002B013C010E946C0F4B01B12CA12C4AE09D
:100DB000C501B4010E94D805080F191FC501B4016F
:100DC0000E949B0F9B01AC01C301B2010E94880EDF
:100DD0004B015C01DBCFC801CF911F910F91FF90B8
:100DE000EF90DF90CF90BF90AF909F908F907F90CB
:100DF0006F905F904F900895EF92FF920F931F9323
:100E0000CF93DF93EC018C81982F9F7739F4807812
:100E100080628C83198218821B821A828C8185FDE4
:100E200009C080E090E0DF91CF911F910F91FF907A
:100E3000EF90089561157105A1F37A018B01888106
:100E40009981009749F1DC011696ED91FC91D8014A
:100E50000D900020E9F71197AD01401B510B30E0D8
:100E600020E0309749F0DF010D900020E9F79D0167
:100E7000215031092E1B3F0B2417350751F4D8019F
:100E8000200F311F2A173B0771F25D9141915417D2
:100E9000C9F30E946404D5CFD7011496ED91FC915B
:100EA000159712968D919C9113970896E817F9075C
:100EB00020F481E018968C93B4CF38971596FC9364
:100EC000EE931497309709F4ACCFAA81BB811097A9
:100ED00091F0CF018A1B9B0B23E0959587952A956E
:100EE000E1F715968C93FB83EA83158214821783AE
:100EF0000683CF0198CFF983E883F5CFFB010190FA
:100F00000020E9F73197AF01461B570B0C94F30310
:100F10001F93CF93DF93EAE2F1E01281112379F07E
:100F2000329621816213F9CFEC016CE50E94DB035C
:100F3000612FCE01DF91CF911F910C94DB036111E2
:100F4000F9CF6BE371E0DF91CF911F910C947E0795
:100F50002F923F924F925F926F927F928F929F92C9
:100F6000AF92BF92CF92DF92EF92FF920F931F93B7
:100F7000CF93DF93CDB7DEB76C970FB6F894DEBF93
:100F80000FBECDBF8C011B01DC0114968C91149710
:100F90008F77863009F499C268F58230A0F11296F5
:100FA000ED90FC901397CC901196DC90843008F073
:100FB0005DC2A701B601C1010E94F303F101848162
:100FC00095816C960FB6F894DEBF0FBECDBFDF9152
:100FD000CF911F910F91FF90EF90DF90CF90BF9036
:100FE000AF909F908F907F906F905F904F903F90C9
:100FF0002F9008958C3069F160F4883009F460C254
:101000008A3009F446C262E471E0C1010E947E07A1
:10101000ECC1803209F4F3C18034A9F76BE5C1015A
:101020000E94DB03F801008111810115110509F40B
:10103000E1C1B101C8010E94A807C8010E9464046F
:101040008C01892B09F4D6C16CE2C1010E94DB033B
:10105000ECCFF801C080D180E280F380A701960137
:10106000C701B6010E94F50E8111CDCF20E030E01E
:10107000A901C701B6010E94F50E882379F0A701E6
:101080009601C701B6010E94890E9B01AC01C70100
:10109000B6010E94F50E882309F4B5CF20E030E0B8
:1010A000A901C701B6010E94F50E87FF08C06DE2D5
:1010B000C1010E94DB03F7FAF094F7F8F09420E8FE
:1010C00036E948E15BE4C701B6010E944D1087FD97
:1010D00088C074E1A72EB12C00E210E0188E1F8AA0
:1010E000F501E058FF4F6591759185919491A701A5
:1010F00096010E94F50E18169CF0F501E859FF4F75
:101100002591359145915491C701B6010E94521025
:101110006B017C012F89388D200F311F388F2F8B69
:101120001595079534E0A31AB1088CEFA8168FEF38
:10113000B806B1F655245A9420E030E0A901C70161
:10114000B6010E944D1018160CF052C02CEA35EC76
:1011500047E257E3C701B6010E94F50E18160CF4DA
:1011600047C0A52DB4E0AB02C0011124B12CA12CC5
:10117000FC01E859FF4F3F019C0120583F4F4901B6
:101180003FEF531609F434C0F301EA0DFB1D6591DE
:1011900075918591949120E030E040E251E40E9405
:1011A0005210A70196010E944D1018169CF4F401EC
:1011B000EA0DFB1D2591359145915491C701B6016A
:1011C0000E9452106B017C018F89988D801B910BBE
:1011D000988F8F8B159507955A9494E0A91AB108AA
:1011E000CFCF00E210E055E0552E188E1F8AA4CF15
:1011F000C701B6010E946C0F4B015C012B013C0141
:1012000006E080E492E4AFE0B0E0898F9A8FAB8F84
:10121000BC8F102F01509AE04916510461047104EB
:10122000C8F0698D7A8D8B8D9C8D2AE030E040E08E
:1012300050E00E94D810298F3A8F4B8F5C8FC301EA
:10124000B2012AE030E040E050E00E94D8102901CD
:101250003A01DFCFC501B4010E949B0F9B01AC0195
:10126000C701B6010E94880E6B017C01698D7A8DE1
:101270008B8D9C8D0E949B0F9B01AC01C701B60119
:101280000E9452102B013C010E946C0F6B017C01EB
:101290000E949B0F9B01AC01C301B2010E94880E0A
:1012A0009B01AC010E94890E0E946C0FC60ED71ED6
:1012B000E81EF91E898D9A8DAB8DBC8DC816D90696
:1012C000EA06FB06D8F09FEF891A990AA90AB90A1B
:1012D000AF89B88DAB2B39F1BAE08B169104A1041C
:1012E000B10408F1EF89F88D3196F88FEF8BC12C9E
:1012F000D12C7601812C912C540183942AE0422E2A
:10130000512C612C712CC701B601A30192010E94DE
:10131000D810672B682B692B51F4111644F469011E
:101320007A011150F0CFC12CD12C7601E7CFB50155
:10133000A401C1010E941804112371F14E01F1E1D1
:101340008F0E911C012F54019AE0492E512C612CD3
:10135000712C015068F0C701B601A30192010E94EF
:10136000D810605DD4016E934D0169017A01F1CF0F
:10137000812F90E0BC0160957095F501E81BF90B99
:1013800031978EE2808344275527461B570B6A0D01
:101390007B1DC1010E94F303EF89F88DEF2B29F12A
:1013A00065E6C1010E94DB030F89188D17FF07C096
:1013B0006DE2C1010E94DB03119501951109FE0147
:1013C00077969F018AE0E82EF12CC801B7010E94B0
:1013D000C410805D82938B01672BB9F7A9014E1B66
:1013E0005F0BBF01C1010E94F303D10114968D91DF
:1013F0009C91E7CD6DE5C1010E94DB03F6CF6BE761
:10140000C1010E94DB03F801008111810115110562
:1014100059F1D8011696CC9016971796DC9062E297
:10142000C1010E94DB037601F70161917F01662310
:1014300021F0C1010E948807F7CF62E2C1010E943A
:10144000DB036AE3C1010E94DB03B101C8010E9412
:10145000A807C8010E9464048C01892B29F06CE262
:10146000C1010E94DB03D2CF6DE7C5CF62E2C101AB
:101470000E94DB038601E00EF11EE016F10639F052
:10148000F80161918F01C1010E948807F6CF62E2E5
:10149000B2CFCD90DD90ED90FC90B701A601F7FEA4
:1014A0000BC06DE2C1010E94DB0344275527BA013E
:1014B0004C195D096E097F09C1010E9418047ECD97
:1014C0004D915D916D917C91F7CF8C9167E471E0C6
:1014D000811102C06CE471E0C1010E947E076ECDF3
:1014E0002F923F924F925F926F927F928F929F9234
:1014F000AF92BF92CF92DF92EF92FF920F931F9322
:10150000CF93DF93CDB7DEB7CE5DD1400FB6F89461
:10151000DEBF0FBECDBF0E94C802882341F080917C
:1015200052028C3009F462C048F48B3001F1C12CB6
:10153000D12C20ECE22E2FE7F22E43C085518230D1
:10154000B0F710914E02612F70E0762F6627662764
:101550007F7780914F02682B90E080E00E949B0F84
:101560002DEC3CEC4CEC5DE30E9452105BC06091B2
:101570004E0270E090E080E00E949B0F6B017C01C6
:1015800010914F0217FF0AC0AC019B0160E070E0B0
:1015900080E89FEB0E94880E6B017C011F70612F19
:1015A00070E090E080E00E949D0F2DEC3CEC4CEC54
:1015B0005DE30E945210A70196010E94890E6B0103
:1015C0007C010E94C802882351F0809152028B3026
:1015D00030F08D3080F18551823008F45BC1412CB0
:1015E000512C90EC692E9FE7792E43C010914E024A
:1015F000612F70E090E080E00E949B0F6B017C0106
:1016000060914F026F7070E090E080E00E949D0F4B
:101610002DEC3CEC4CEC5DE30E945210A7019601CE
:101620000E94890E6B017C0117FFCBCFF7FAF09473
:10163000F7F8F094C6CF60914D0270E090E080E042
:101640000E949D0F2DEC3CEC4CEC5DE30E9452108F
:101650004B015C0160914C0270E090E080E00E94E0
:101660009D0F9B01AC01C501B4010E94890E2B01A5
:101670003C0160E082E00E94E90183E090E0019794
:10168000F1F761E082E00E94E90183E290E00197D6
:10169000F1F760E082E00E94E901E1EEF0E06491A0
:1016A000EDECF0E0E491F0E0EE0FFF1FE054FF4FAF
:1016B0008591949100E412E42FE030E0462F0E94DF
:1016C0000E0D4B015C0181149104A104B10439F0A9
:1016D0008FEF881A980AA80AB80A9FE0B9228E01EB
:1016E0000F5F1E4FC8010E96F8019183808393838C
:1016F00082831E01F9E22F1AFEEF3F0AF8013582BC
:1017000024823782268210861586A80162E571E060
:1017100005970E94FC06FC01892B41F0948190788A
:101720009C609483C082D182E282F382A8016EE53C
:1017300071E0C80109960E94FC06FC01892B41F06A
:10174000948190789C6094834082518262827382FB
:10175000A80166E671E0C80109960E94FC06C35222
:10176000DE4F99838883CD5DD1400097C9F0FC019D
:10177000848180788C608483C501B4010E949D0FB0
:101780002DEC3CEC48E652E40E94FA0EC352DE4FC8
:10179000E881F981CD5DD140608371838283938339
:1017A000F10111830083CE0101965C019383828352
:1017B00015821482B101C80109960E94A8078F3FC3
:1017C000910509F020F48A0D9B1DFC011082B501E2
:1017D00087E991E00E94C90560E771E087E991E03F
:1017E0000E94C90560E08DE00E94B40563E771E0E6
:1017F00084E392E00E94C90560E08DE00E94B40598
:1018000042E0C701B6010E941E0661E088E00E9426
:10181000B40563E771E084E392E00E94C90561E0EA
:1018200088E00E94B40542E0C301B2010E941E0696
:1018300020E030E04CE052E4C701B6010E944D10B8
:1018400087FD3AC060E088E00E94E90161E08DE038
:101850000E94E90162E876E080E090E00E94960252
:10186000C252DE4F0FB6F894DEBF0FBECDBFDF9180
:10187000CF911F910F91FF90EF90DF90CF90BF908D
:10188000AF909F908F907F906F905F904F903F9020
:101890002F90089560914C0270914D027627672732
:1018A000762790E080E00E949B0F2DEC3CEC4CEC06
:1018B0005DE30E945210DBCE20E030E0A901C701B9
:1018C000B6010E94F50E61E018160CF460E088E0A5
:1018D0000E94E90160E0BBCF1F920F920FB60F92FA
:1018E00011242F933F934F935F936F937F938F9325
:1018F0009F93AF93BF93EF93FF9387E991E00E948B
:101900005A01FF91EF91BF91AF919F918F917F917C
:101910006F915F914F913F912F910F900FBE0F905C
:101920001F9018951F920F920FB60F9211242F93AC
:101930008F939F93EF93FF93E091A701F091A801FC
:101940008081E091AD01F091AE0182FD1BC09081DC
:101950008091B0018F5F8F732091B101821741F0A8
:10196000E091B001F0E0E956FE4F958F8093B00111
:10197000FF91EF919F918F912F910F900FBE0F903C
:101980001F9018958081F4CF1F920F920FB60F927F
:1019900011242F933F938F939F93AF93BF93809185
:1019A000930190919401A0919501B091960130918D
:1019B0008E0123E0230F2D3758F50196A11DB11D8F
:1019C00020938E018093930190939401A0939501AD
:1019D000B093960180918F0190919001A091910117
:1019E000B09192010196A11DB11D80938F0190933A
:1019F0009001A0939101B0939201BF91AF919F91FB
:101A00008F913F912F910F900FBE0F901F901895BF
:101A100026E8230F0296A11DB11DD2CFCF92DF92EF
:101A2000EF92FF920F931F93E82FF92F05C00150FB
:101A300011092109310961F1908196239417B9F3B5
:101A400005C0015011092109310911F19081962336
:101A50009413F7CFC12CD12CE12CF12C0AC08FEFBD
:101A6000C81AD80AE80AF80A0C151D052E053F0504
:101A700079F080818623841791F36C2D7D2D8E2D36
:101A80009F2D1F910F91FF90EF90DF90CF900895C1
:101A900060E070E080E090E01F910F91FF90EF9088
:101AA000DF90CF900895E7E9F1E01382128288EE8B
:101AB00093E0A0E0B0E084839583A683B78384E0BD
:101AC00091E09183808385EC90E09587848784EC16
:101AD00090E09787868780EC90E0918B808B81ECFB
:101AE00090E0938B828B82EC90E0958B848B86ECDC
:101AF00090E0978B868B118E128E138E148EACE431
:101B0000B2E085E015968C93159786E116968C9336
:101B10001697E3EEF0E0E4911796EC931797EFEC4D
:101B2000F0E0E4911896EC93189740E85EE360E0EB
:101B300070E01D964D935D936D937C935097E4E315
:101B4000F2E01382128286E191E0918380838CE03F
:101B500084838FEF85838BE086838AE0878389E0A7
:101B6000808788E0818787E08287138614861586C0
:101B70001686178681E00C940E05789484B58260F1
:101B800084BD84B5816084BD85B5826085BD85B521
:101B9000816085BD80916E00816080936E0010929F
:101BA000810080918100826080938100809181001A
:101BB00081608093810080918000816080938000AB
:101BC0008091B10084608093B1008091B000816009
:101BD0008093B00080917A00846080937A00809135
:101BE0007A00826080937A0080917A00816080938D
:101BF0007A0080917A00806880937A001092C10008
:101C000061E088E00E94350261E08DE00E943502CB
:101C100061E082E00E94350260E083E00E943502CC
:101C200062E0809151020E9435022FB7F8948091B2
:101C3000930190919401A0919501B09196012FBFCD
:101C4000805D9740A109B109809355029093560297
:101C5000A0935702B093580287E380935E0282E01C
:101C60000E940E0560E080E00E94B40568E771E024
:101C700084E392E00E94C90561E080E00E94B4051F
:101C800065E871E084E392E00E94C905E091A70154
:101C9000F091A80182E08083E091A301F091A4017A
:101CA0001082E091A501F091A6018FEC8083109243
:101CB000AF01E091AB01F091AC0186E08083E0914F
:101CC000A901F091AA01808180618083E091A9013E
:101CD000F091AA01808188608083E091A901F09150
:101CE000AA01808180688083E091A901F091AA0116
:101CF00080818F7D8083C0E0D0E00E94700A2097B1
:101D0000E1F30E9446018823C1F30E940000F5CF51
:101D10005058BB27AA270E94A00E0C9413100E94B3
:101D2000051038F00E940C1020F039F49F3F19F490
:101D300026F40C9402100EF4E095E7FB0C94FC0FD3
:101D4000E92F0E94241058F3BA176207730784071B
:101D5000950720F079F4A6F50C9446100EF4E09562
:101D60000B2EBA2FA02D0B01B90190010C01CA0155
:101D7000A0011124FF27591B99F0593F50F4503E00
:101D800068F11A16F040A22F232F342F4427585FF2
:101D9000F3CF469537952795A795F0405395C9F70A
:101DA0007EF41F16BA0B620B730B840BBAF09150C2
:101DB000A1F0FF0FBB1F661F771F881FC2F70EC061
:101DC000BA0F621F731F841F48F487957795679534
:101DD000B795F7959E3F08F0B0CF9395880F08F020
:101DE0009927EE0F9795879508950E94D80F08F4CC
:101DF00081E008950E940E0F0C9413100E940C10A5
:101E000058F00E94051040F029F45F3F29F00C942F
:101E1000FC0F51110C9447100C9402100E942410D6
:101E200068F39923B1F3552391F3951B550BBB2709
:101E3000AA2762177307840738F09F5F5F4F220F4E
:101E4000331F441FAA1FA9F335D00E2E3AF0E0E845
:101E500032D091505040E695001CCAF72BD0FE2F8F
:101E600029D0660F771F881FBB1F26173707480723
:101E7000AB07B0E809F0BB0B802DBF01FF279358DB
:101E80005F4F3AF09E3F510578F00C94FC0F0C9494
:101E900047105F3FE4F3983ED4F3869577956795B6
:101EA000B795F7959F5FC9F7880F911D9695879510
:101EB00097F90895E1E0660F771F881FBB1F62172F
:101EC00073078407BA0720F0621B730B840BBA0BED
:101ED000EE1F88F7E09508950E942C1088F09F5718
:101EE00098F0B92F9927B751B0F0E1F0660F771F3E
:101EF000881F991F1AF0BA95C9F714C0B13091F034
:101F00000E944610B1E008950C944610672F782F78
:101F10008827B85F39F0B93FCCF3869577956795F8
:101F2000B395D9F73EF490958095709561957F4F64
:101F30008F4F9F4F0895E89409C097FB3EF490950A
:101F40008095709561957F4F8F4F9F4F9923A9F092
:101F5000F92F96E9BB279395F69587957795679521
:101F6000B795F111F8CFFAF4BB0F11F460FF1BC065
:101F70006F5F7F4F8F4F9F4F16C0882311F096E9F8
:101F800011C0772321F09EE8872F762F05C06623A6
:101F900071F096E8862F70E060E02AF09A95660F5F
:101FA000771F881FDAF7880F9695879597F9089518
:101FB000990F0008550FAA0BE0E8FEEF161617065A
:101FC000E807F907C0F012161306E407F50798F0C2
:101FD000621B730B840B950B39F40A2661F0232BDB
:101FE000242B252B21F408950A2609F4A140A69557
:101FF0008FEF811D811D089597F99F6780E870E03C
:1020000060E008959FEF80EC089500240A9416166E
:10201000170618060906089500240A9412161306D6
:10202000140605060895092E0394000C11F4882364
:1020300052F0BB0F40F4BF2B11F460FF04C06F5F80
:102040007F4F8F4F9F4F089557FD9058440F551F56
:1020500059F05F3F71F04795880F97FB991F61F02A
:102060009F3F79F087950895121613061406551FA1
:10207000F2CF4695F1DF08C0161617061806991F0D
:10208000F1CF86957105610508940895E894BB2702
:1020900066277727CB0197F908950E94D80F08F497
:1020A0008FEF08950E9465100C9413100E94051084
:1020B00038F00E940C1020F0952311F00C94FC0FC6
:1020C0000C94021011240C9447100E94241070F3F9
:1020D000959FC1F3950F50E0551F629FF001729FCD
:1020E000BB27F00DB11D639FAA27F00DB11DAA1FDC
:1020F000649F6627B00DA11D661F829F2227B00D29
:10210000A11D621F739FB00DA11D621F839FA00DB3
:10211000611D221F749F3327A00D611D231F849F03
:10212000600D211D822F762F6A2F11249F5750405A
:102130009AF0F1F088234AF0EE0FFF1FBB1F661FD5
:10214000771F881F91505040A9F79E3F510580F09E
:102150000C94FC0F0C9447105F3FE4F3983ED4F3CB
:10216000869577956795B795F795E7959F5FC1F742
:10217000FE2B880F911D9695879597F908950E94DB
:10218000D80F880B990B0895AA1BBB1B51E107C000
:10219000AA1FBB1FA617B70710F0A61BB70B881FF7
:1021A000991F5A95A9F780959095BC01CD01089586
:1021B000A1E21A2EAA1BBB1BFD010DC0AA1FBB1F4B
:1021C000EE1FFF1FA217B307E407F50720F0A21BBD
:1021D000B30BE40BF50B661F771F881F991F1A942A
:1021E00069F760957095809590959B01AC01BD0154
:1021F000CF010895EE0FFF1F0590F491E02D099493
:10220000F894FFCF000000007C01DC000901C90147
:102210003A0118012C0100000000C305DC00D803BE
:10222000D7036E616E00696E66006F7666002F2FB1
:1022300022225C5C6208660C6E0A720D7409005CF6
:102240007530303030006E756C6C007472756500DE
:1022500066616C73650074656D706572617475722A
:102260006100756D69646164650064697374616EB1
:10227000636961000D0A00202020200054656D7004
:10228000657261747572613A00556D696461646567
:022290003A0012
:107E0000112484B714BE81FFF0D085E080938100F7
:107E100082E08093C00088E18093C10086E0809377
:107E2000C20080E18093C4008EE0C9D0259A86E02C
:107E300020E33CEF91E0309385002093840096BBD3
:107E4000B09BFECF1D9AA8958150A9F7CC24DD24C4
:107E500088248394B5E0AB2EA1E19A2EF3E0BF2EE7
:107E6000A2D0813461F49FD0082FAFD0023811F036
:107E7000013811F484E001C083E08DD089C08234E0
:107E800011F484E103C0853419F485E0A6D080C0E4
:107E9000853579F488D0E82EFF2485D0082F10E0AE
:107EA000102F00270E291F29000F111F8ED06801E7
:107EB0006FC0863521F484E090D080E0DECF843638
:107EC00009F040C070D06FD0082F6DD080E0C81688
:107ED00080E7D80618F4F601B7BEE895C0E0D1E017
:107EE00062D089930C17E1F7F0E0CF16F0E7DF06D8
:107EF00018F0F601B7BEE89568D007B600FCFDCFD4
:107F0000A601A0E0B1E02C9130E011968C91119780
:107F100090E0982F8827822B932B1296FA010C0160
:107F200087BEE89511244E5F5F4FF1E0A038BF0790
:107F300051F7F601A7BEE89507B600FCFDCF97BE46
:107F4000E89526C08437B1F42ED02DD0F82E2BD052
:107F50003CD0F601EF2C8F010F5F1F4F84911BD097
:107F6000EA94F801C1F70894C11CD11CFA94CF0C13
:107F7000D11C0EC0853739F428D08EE10CD085E9AC
:107F80000AD08FE07ACF813511F488E018D01DD067
:107F900080E101D065CF982F8091C00085FFFCCF94
:107FA0009093C60008958091C00087FFFCCF809118
:107FB000C00084FD01C0A8958091C6000895E0E648
:107FC000F0E098E1908380830895EDDF803219F02E
:107FD00088E0F5DFFFCF84E1DECF1F93182FE3DFCA
:107FE0001150E9F7F2DF1F91089580E0E8DFEE27F6
:047FF000FF270994CA
:027FFE00040479
:00000001FF
